{
  "_format": "hh-sol-artifact-1",
  "contractName": "MLM",
  "sourceName": "contracts/MLM.sol",
  "abi": [
    {
      "inputs": [],
      "name": "add",
      "outputs": [],
      "stateMutability": "nonpayable",
      "type": "function"
    },
    {
      "inputs": [
        {
          "internalType": "address",
          "name": "parentaddress",
          "type": "address"
        },
        {
          "internalType": "uint256",
          "name": "index",
          "type": "uint256"
        }
      ],
      "name": "checkchild",
      "outputs": [
        {
          "internalType": "address",
          "name": "",
          "type": "address"
        }
      ],
      "stateMutability": "view",
      "type": "function"
    },
    {
      "inputs": [
        {
          "internalType": "address",
          "name": "",
          "type": "address"
        },
        {
          "internalType": "uint256",
          "name": "",
          "type": "uint256"
        }
      ],
      "name": "container",
      "outputs": [
        {
          "internalType": "address",
          "name": "",
          "type": "address"
        }
      ],
      "stateMutability": "view",
      "type": "function"
    },
    {
      "inputs": [
        {
          "internalType": "uint256",
          "name": "",
          "type": "uint256"
        }
      ],
      "name": "entrylist",
      "outputs": [
        {
          "internalType": "address",
          "name": "",
          "type": "address"
        }
      ],
      "stateMutability": "view",
      "type": "function"
    },
    {
      "inputs": [],
      "name": "lengthoflist",
      "outputs": [
        {
          "internalType": "uint256",
          "name": "",
          "type": "uint256"
        }
      ],
      "stateMutability": "view",
      "type": "function"
    },
    {
      "inputs": [],
      "name": "nestedadd",
      "outputs": [],
      "stateMutability": "nonpayable",
      "type": "function"
    }
  ],
  "bytecode": "0x608060405234801561001057600080fd5b506108b7806100206000396000f3fe608060405234801561001057600080fd5b50600436106100625760003560e01c80632cc3a7d7146100675780634f2be91f1461009757806377c64948146100a15780638281c108146100d1578063bf19c56c146100db578063cb7f625f146100f9575b600080fd5b610081600480360381019061007c9190610646565b610129565b60405161008e91906106b4565b60405180910390f35b61009f610168565b005b6100bb60048036038101906100b691906106fb565b6101e7565b6040516100c891906106b4565b60405180910390f35b6100d9610229565b005b6100e36104de565b6040516100f0919061074a565b60405180910390f35b610113600480360381019061010e91906106fb565b6104e4565b60405161012091906106b4565b60405180910390f35b6000818154811061013957600080fd5b906000526020600020016000915054906101000a900473ffffffffffffffffffffffffffffffffffffffff1681565b61017061055f565b156101d9576000339080600181540180825580915050600190039060005260206000200160009091909190916101000a81548173ffffffffffffffffffffffffffffffffffffffff021916908373ffffffffffffffffffffffffffffffffffffffff1602179055505b600080549050600281905550565b60016020528160005260406000206020528060005260406000206000915091509054906101000a900473ffffffffffffffffffffffffffffffffffffffff1681565b60005b6000805490508110156104db57600080549050600160028361024e9190610794565b61025891906107d6565b1015610381576000600160028361026f9190610794565b61027991906107d6565b8154811061028a5761028961080a565b5b9060005260206000200160009054906101000a900473ffffffffffffffffffffffffffffffffffffffff16600160008084815481106102cc576102cb61080a565b5b9060005260206000200160009054906101000a900473ffffffffffffffffffffffffffffffffffffffff1673ffffffffffffffffffffffffffffffffffffffff1673ffffffffffffffffffffffffffffffffffffffff168152602001908152602001600020600080815260200190815260200160002060006101000a81548173ffffffffffffffffffffffffffffffffffffffff021916908373ffffffffffffffffffffffffffffffffffffffff1602179055505b600080549050600280836103959190610794565b61039f91906107d6565b10156104c8576000600280836103b59190610794565b6103bf91906107d6565b815481106103d0576103cf61080a565b5b9060005260206000200160009054906101000a900473ffffffffffffffffffffffffffffffffffffffff16600160008084815481106104125761041161080a565b5b9060005260206000200160009054906101000a900473ffffffffffffffffffffffffffffffffffffffff1673ffffffffffffffffffffffffffffffffffffffff1673ffffffffffffffffffffffffffffffffffffffff16815260200190815260200160002060006001815260200190815260200160002060006101000a81548173ffffffffffffffffffffffffffffffffffffffff021916908373ffffffffffffffffffffffffffffffffffffffff1602179055505b80806104d390610839565b91505061022c565b50565b60025481565b6000600160008473ffffffffffffffffffffffffffffffffffffffff1673ffffffffffffffffffffffffffffffffffffffff168152602001908152602001600020600083815260200190815260200160002060009054906101000a900473ffffffffffffffffffffffffffffffffffffffff16905092915050565b6000806001905060005b600080549050811015610603573373ffffffffffffffffffffffffffffffffffffffff16600082815481106105a1576105a061080a565b5b9060005260206000200160009054906101000a900473ffffffffffffffffffffffffffffffffffffffff1673ffffffffffffffffffffffffffffffffffffffff16036105f05760009150610603565b80806105fb90610839565b915050610569565b508091505090565b600080fd5b6000819050919050565b61062381610610565b811461062e57600080fd5b50565b6000813590506106408161061a565b92915050565b60006020828403121561065c5761065b61060b565b5b600061066a84828501610631565b91505092915050565b600073ffffffffffffffffffffffffffffffffffffffff82169050919050565b600061069e82610673565b9050919050565b6106ae81610693565b82525050565b60006020820190506106c960008301846106a5565b92915050565b6106d881610693565b81146106e357600080fd5b50565b6000813590506106f5816106cf565b92915050565b600080604083850312156107125761071161060b565b5b6000610720858286016106e6565b925050602061073185828601610631565b9150509250929050565b61074481610610565b82525050565b600060208201905061075f600083018461073b565b92915050565b7f4e487b7100000000000000000000000000000000000000000000000000000000600052601160045260246000fd5b600061079f82610610565b91506107aa83610610565b92508282026107b881610610565b915082820484148315176107cf576107ce610765565b5b5092915050565b60006107e182610610565b91506107ec83610610565b925082820190508082111561080457610803610765565b5b92915050565b7f4e487b7100000000000000000000000000000000000000000000000000000000600052603260045260246000fd5b600061084482610610565b91507fffffffffffffffffffffffffffffffffffffffffffffffffffffffffffffffff820361087657610875610765565b5b60018201905091905056fea264697066735822122045d4792e8e3a8e8a4bea0064c852477fa29e2ed33827df2840ac85119787472064736f6c63430008130033",
  "linkReferences": {},
  "deployedLinkReferences": {}
}