{
  "_format": "hh-sol-artifact-1",
  "contractName": "Mynft",
  "sourceName": "contracts/Mynft.sol",
  "abi": [
    {
      "inputs": [],
      "stateMutability": "nonpayable",
      "type": "constructor"
    },
    {
      "anonymous": false,
      "inputs": [
        {
          "indexed": true,
          "internalType": "address",
          "name": "owner",
          "type": "address"
        },
        {
          "indexed": true,
          "internalType": "address",
          "name": "approved",
          "type": "address"
        },
        {
          "indexed": true,
          "internalType": "uint256",
          "name": "tokenId",
          "type": "uint256"
        }
      ],
      "name": "Approval",
      "type": "event"
    },
    {
      "anonymous": false,
      "inputs": [
        {
          "indexed": true,
          "internalType": "address",
          "name": "owner",
          "type": "address"
        },
        {
          "indexed": true,
          "internalType": "address",
          "name": "operator",
          "type": "address"
        },
        {
          "indexed": false,
          "internalType": "bool",
          "name": "approved",
          "type": "bool"
        }
      ],
      "name": "ApprovalForAll",
      "type": "event"
    },
    {
      "anonymous": false,
      "inputs": [
        {
          "indexed": true,
          "internalType": "address",
          "name": "from",
          "type": "address"
        },
        {
          "indexed": true,
          "internalType": "address",
          "name": "to",
          "type": "address"
        },
        {
          "indexed": true,
          "internalType": "uint256",
          "name": "tokenId",
          "type": "uint256"
        }
      ],
      "name": "Transfer",
      "type": "event"
    },
    {
      "inputs": [
        {
          "internalType": "address",
          "name": "to",
          "type": "address"
        },
        {
          "internalType": "uint256",
          "name": "tokenId",
          "type": "uint256"
        }
      ],
      "name": "approve",
      "outputs": [],
      "stateMutability": "nonpayable",
      "type": "function"
    },
    {
      "inputs": [
        {
          "internalType": "address",
          "name": "owner",
          "type": "address"
        }
      ],
      "name": "balanceOf",
      "outputs": [
        {
          "internalType": "uint256",
          "name": "",
          "type": "uint256"
        }
      ],
      "stateMutability": "view",
      "type": "function"
    },
    {
      "inputs": [
        {
          "internalType": "uint256",
          "name": "tokenId",
          "type": "uint256"
        }
      ],
      "name": "getApproved",
      "outputs": [
        {
          "internalType": "address",
          "name": "",
          "type": "address"
        }
      ],
      "stateMutability": "view",
      "type": "function"
    },
    {
      "inputs": [
        {
          "internalType": "address",
          "name": "owner",
          "type": "address"
        },
        {
          "internalType": "address",
          "name": "operator",
          "type": "address"
        }
      ],
      "name": "isApprovedForAll",
      "outputs": [
        {
          "internalType": "bool",
          "name": "",
          "type": "bool"
        }
      ],
      "stateMutability": "view",
      "type": "function"
    },
    {
      "inputs": [
        {
          "internalType": "uint256",
          "name": "tokenId",
          "type": "uint256"
        }
      ],
      "name": "mint",
      "outputs": [],
      "stateMutability": "nonpayable",
      "type": "function"
    },
    {
      "inputs": [],
      "name": "name",
      "outputs": [
        {
          "internalType": "string",
          "name": "",
          "type": "string"
        }
      ],
      "stateMutability": "view",
      "type": "function"
    },
    {
      "inputs": [
        {
          "internalType": "uint256",
          "name": "tokenId",
          "type": "uint256"
        }
      ],
      "name": "ownerOf",
      "outputs": [
        {
          "internalType": "address",
          "name": "",
          "type": "address"
        }
      ],
      "stateMutability": "view",
      "type": "function"
    },
    {
      "inputs": [
        {
          "internalType": "address",
          "name": "from",
          "type": "address"
        },
        {
          "internalType": "address",
          "name": "to",
          "type": "address"
        },
        {
          "internalType": "uint256",
          "name": "tokenId",
          "type": "uint256"
        }
      ],
      "name": "safeTransferFrom",
      "outputs": [],
      "stateMutability": "nonpayable",
      "type": "function"
    },
    {
      "inputs": [
        {
          "internalType": "address",
          "name": "from",
          "type": "address"
        },
        {
          "internalType": "address",
          "name": "to",
          "type": "address"
        },
        {
          "internalType": "uint256",
          "name": "tokenId",
          "type": "uint256"
        },
        {
          "internalType": "bytes",
          "name": "data",
          "type": "bytes"
        }
      ],
      "name": "safeTransferFrom",
      "outputs": [],
      "stateMutability": "nonpayable",
      "type": "function"
    },
    {
      "inputs": [
        {
          "internalType": "address",
          "name": "operator",
          "type": "address"
        },
        {
          "internalType": "bool",
          "name": "approved",
          "type": "bool"
        }
      ],
      "name": "setApprovalForAll",
      "outputs": [],
      "stateMutability": "nonpayable",
      "type": "function"
    },
    {
      "inputs": [
        {
          "internalType": "bytes4",
          "name": "interfaceId",
          "type": "bytes4"
        }
      ],
      "name": "supportsInterface",
      "outputs": [
        {
          "internalType": "bool",
          "name": "",
          "type": "bool"
        }
      ],
      "stateMutability": "view",
      "type": "function"
    },
    {
      "inputs": [],
      "name": "symbol",
      "outputs": [
        {
          "internalType": "string",
          "name": "",
          "type": "string"
        }
      ],
      "stateMutability": "view",
      "type": "function"
    },
    {
      "inputs": [
        {
          "internalType": "uint256",
          "name": "tokenId",
          "type": "uint256"
        }
      ],
      "name": "tokenURI",
      "outputs": [
        {
          "internalType": "string",
          "name": "",
          "type": "string"
        }
      ],
      "stateMutability": "view",
      "type": "function"
    },
    {
      "inputs": [
        {
          "internalType": "address",
          "name": "from",
          "type": "address"
        },
        {
          "internalType": "address",
          "name": "to",
          "type": "address"
        },
        {
          "internalType": "uint256",
          "name": "tokenId",
          "type": "uint256"
        }
      ],
      "name": "transferFrom",
      "outputs": [],
      "stateMutability": "nonpayable",
      "type": "function"
    }
  ],
  "bytecode": "0x60806040523480156200001157600080fd5b506040518060400160405280600a81526020017f6f70656e6d61726b6574000000000000000000000000000000000000000000008152506040518060400160405280600481526020017f6f6d6b740000000000000000000000000000000000000000000000000000000081525081600090816200008f919062000324565b508060019081620000a1919062000324565b5050506200040b565b600081519050919050565b7f4e487b7100000000000000000000000000000000000000000000000000000000600052604160045260246000fd5b7f4e487b7100000000000000000000000000000000000000000000000000000000600052602260045260246000fd5b600060028204905060018216806200012c57607f821691505b602082108103620001425762000141620000e4565b5b50919050565b60008190508160005260206000209050919050565b60006020601f8301049050919050565b600082821b905092915050565b600060088302620001ac7fffffffffffffffffffffffffffffffffffffffffffffffffffffffffffffffff826200016d565b620001b886836200016d565b95508019841693508086168417925050509392505050565b6000819050919050565b6000819050919050565b600062000205620001ff620001f984620001d0565b620001da565b620001d0565b9050919050565b6000819050919050565b6200022183620001e4565b6200023962000230826200020c565b8484546200017a565b825550505050565b600090565b6200025062000241565b6200025d81848462000216565b505050565b5b8181101562000285576200027960008262000246565b60018101905062000263565b5050565b601f821115620002d4576200029e8162000148565b620002a9846200015d565b81016020851015620002b9578190505b620002d1620002c8856200015d565b83018262000262565b50505b505050565b600082821c905092915050565b6000620002f960001984600802620002d9565b1980831691505092915050565b6000620003148383620002e6565b9150826002028217905092915050565b6200032f82620000aa565b67ffffffffffffffff8111156200034b576200034a620000b5565b5b62000357825462000113565b6200036482828562000289565b600060209050601f8311600181146200039c576000841562000387578287015190505b62000393858262000306565b86555062000403565b601f198416620003ac8662000148565b60005b82811015620003d657848901518255600182019150602085019450602081019050620003af565b86831015620003f65784890151620003f2601f891682620002e6565b8355505b6001600288020188555050505b505050505050565b612459806200041b6000396000f3fe608060405234801561001057600080fd5b50600436106100ea5760003560e01c806370a082311161008c578063a22cb46511610066578063a22cb4651461025b578063b88d4fde14610277578063c87b56dd14610293578063e985e9c5146102c3576100ea565b806370a08231146101f157806395d89b4114610221578063a0712d681461023f576100ea565b8063095ea7b3116100c8578063095ea7b31461016d57806323b872dd1461018957806342842e0e146101a55780636352211e146101c1576100ea565b806301ffc9a7146100ef57806306fdde031461011f578063081812fc1461013d575b600080fd5b61010960048036038101906101049190611755565b6102f3565b604051610116919061179d565b60405180910390f35b6101276103d5565b6040516101349190611848565b60405180910390f35b610157600480360381019061015291906118a0565b610467565b604051610164919061190e565b60405180910390f35b61018760048036038101906101829190611955565b6104ad565b005b6101a3600480360381019061019e9190611995565b6105c4565b005b6101bf60048036038101906101ba9190611995565b610624565b005b6101db60048036038101906101d691906118a0565b610644565b6040516101e8919061190e565b60405180910390f35b61020b600480360381019061020691906119e8565b6106ca565b6040516102189190611a24565b60405180910390f35b610229610781565b6040516102369190611848565b60405180910390f35b610259600480360381019061025491906118a0565b610813565b005b61027560048036038101906102709190611a6b565b610820565b005b610291600480360381019061028c9190611be0565b610836565b005b6102ad60048036038101906102a891906118a0565b610898565b6040516102ba9190611848565b60405180910390f35b6102dd60048036038101906102d89190611c63565b610900565b6040516102ea919061179d565b60405180910390f35b60007f80ac58cd000000000000000000000000000000000000000000000000000000007bffffffffffffffffffffffffffffffffffffffffffffffffffffffff1916827bffffffffffffffffffffffffffffffffffffffffffffffffffffffff191614806103be57507f5b5e139f000000000000000000000000000000000000000000000000000000007bffffffffffffffffffffffffffffffffffffffffffffffffffffffff1916827bffffffffffffffffffffffffffffffffffffffffffffffffffffffff1916145b806103ce57506103cd82610994565b5b9050919050565b6060600080546103e490611cd2565b80601f016020809104026020016040519081016040528092919081815260200182805461041090611cd2565b801561045d5780601f106104325761010080835404028352916020019161045d565b820191906000526020600020905b81548152906001019060200180831161044057829003601f168201915b5050505050905090565b6000610472826109fe565b6004600083815260200190815260200160002060009054906101000a900473ffffffffffffffffffffffffffffffffffffffff169050919050565b60006104b882610644565b90508073ffffffffffffffffffffffffffffffffffffffff168373ffffffffffffffffffffffffffffffffffffffff1603610528576040517f08c379a000000000000000000000000000000000000000000000000000000000815260040161051f90611d75565b60405180910390fd5b8073ffffffffffffffffffffffffffffffffffffffff16610547610a49565b73ffffffffffffffffffffffffffffffffffffffff161480610576575061057581610570610a49565b610900565b5b6105b5576040517f08c379a00000000000000000000000000000000000000000000000000000000081526004016105ac90611e07565b60405180910390fd5b6105bf8383610a51565b505050565b6105d56105cf610a49565b82610b0a565b610614576040517f08c379a000000000000000000000000000000000000000000000000000000000815260040161060b90611e99565b60405180910390fd5b61061f838383610b9f565b505050565b61063f83838360405180602001604052806000815250610836565b505050565b60008061065083610e98565b9050600073ffffffffffffffffffffffffffffffffffffffff168173ffffffffffffffffffffffffffffffffffffffff16036106c1576040517f08c379a00000000000000000000000000000000000000000000000000000000081526004016106b890611f05565b60405180910390fd5b80915050919050565b60008073ffffffffffffffffffffffffffffffffffffffff168273ffffffffffffffffffffffffffffffffffffffff160361073a576040517f08c379a000000000000000000000000000000000000000000000000000000000815260040161073190611f97565b60405180910390fd5b600360008373ffffffffffffffffffffffffffffffffffffffff1673ffffffffffffffffffffffffffffffffffffffff168152602001908152602001600020549050919050565b60606001805461079090611cd2565b80601f01602080910402602001604051908101604052809291908181526020018280546107bc90611cd2565b80156108095780601f106107de57610100808354040283529160200191610809565b820191906000526020600020905b8154815290600101906020018083116107ec57829003601f168201915b5050505050905090565b61081d3382610ed5565b50565b61083261082b610a49565b83836110f2565b5050565b610847610841610a49565b83610b0a565b610886576040517f08c379a000000000000000000000000000000000000000000000000000000000815260040161087d90611e99565b60405180910390fd5b6108928484848461125e565b50505050565b60606108a3826109fe565b60006108ad6112ba565b905060008151116108cd57604051806020016040528060008152506108f8565b806108d7846112d1565b6040516020016108e8929190611ff3565b6040516020818303038152906040525b915050919050565b6000600560008473ffffffffffffffffffffffffffffffffffffffff1673ffffffffffffffffffffffffffffffffffffffff16815260200190815260200160002060008373ffffffffffffffffffffffffffffffffffffffff1673ffffffffffffffffffffffffffffffffffffffff16815260200190815260200160002060009054906101000a900460ff16905092915050565b60007f01ffc9a7000000000000000000000000000000000000000000000000000000007bffffffffffffffffffffffffffffffffffffffffffffffffffffffff1916827bffffffffffffffffffffffffffffffffffffffffffffffffffffffff1916149050919050565b610a078161139f565b610a46576040517f08c379a0000000000000000000000000000000000000000000000000000000008152600401610a3d90611f05565b60405180910390fd5b50565b600033905090565b816004600083815260200190815260200160002060006101000a81548173ffffffffffffffffffffffffffffffffffffffff021916908373ffffffffffffffffffffffffffffffffffffffff160217905550808273ffffffffffffffffffffffffffffffffffffffff16610ac483610644565b73ffffffffffffffffffffffffffffffffffffffff167f8c5be1e5ebec7d5bd14f71427d1e84f3dd0314c0f7b2291e5b200ac8c7c3b92560405160405180910390a45050565b600080610b1683610644565b90508073ffffffffffffffffffffffffffffffffffffffff168473ffffffffffffffffffffffffffffffffffffffff161480610b585750610b578185610900565b5b80610b9657508373ffffffffffffffffffffffffffffffffffffffff16610b7e84610467565b73ffffffffffffffffffffffffffffffffffffffff16145b91505092915050565b8273ffffffffffffffffffffffffffffffffffffffff16610bbf82610644565b73ffffffffffffffffffffffffffffffffffffffff1614610c15576040517f08c379a0000000000000000000000000000000000000000000000000000000008152600401610c0c90612089565b60405180910390fd5b600073ffffffffffffffffffffffffffffffffffffffff168273ffffffffffffffffffffffffffffffffffffffff1603610c84576040517f08c379a0000000000000000000000000000000000000000000000000000000008152600401610c7b9061211b565b60405180910390fd5b610c9183838360016113e0565b8273ffffffffffffffffffffffffffffffffffffffff16610cb182610644565b73ffffffffffffffffffffffffffffffffffffffff1614610d07576040517f08c379a0000000000000000000000000000000000000000000000000000000008152600401610cfe90612089565b60405180910390fd5b6004600082815260200190815260200160002060006101000a81549073ffffffffffffffffffffffffffffffffffffffff02191690556001600360008573ffffffffffffffffffffffffffffffffffffffff1673ffffffffffffffffffffffffffffffffffffffff168152602001908152602001600020600082825403925050819055506001600360008473ffffffffffffffffffffffffffffffffffffffff1673ffffffffffffffffffffffffffffffffffffffff16815260200190815260200160002060008282540192505081905550816002600083815260200190815260200160002060006101000a81548173ffffffffffffffffffffffffffffffffffffffff021916908373ffffffffffffffffffffffffffffffffffffffff160217905550808273ffffffffffffffffffffffffffffffffffffffff168473ffffffffffffffffffffffffffffffffffffffff167fddf252ad1be2c89b69c2b068fc378daa952ba7f163c4a11628f55a4df523b3ef60405160405180910390a4610e9383838360016113e6565b505050565b60006002600083815260200190815260200160002060009054906101000a900473ffffffffffffffffffffffffffffffffffffffff169050919050565b600073ffffffffffffffffffffffffffffffffffffffff168273ffffffffffffffffffffffffffffffffffffffff1603610f44576040517f08c379a0000000000000000000000000000000000000000000000000000000008152600401610f3b90612187565b60405180910390fd5b610f4d8161139f565b15610f8d576040517f08c379a0000000000000000000000000000000000000000000000000000000008152600401610f84906121f3565b60405180910390fd5b610f9b6000838360016113e0565b610fa48161139f565b15610fe4576040517f08c379a0000000000000000000000000000000000000000000000000000000008152600401610fdb906121f3565b60405180910390fd5b6001600360008473ffffffffffffffffffffffffffffffffffffffff1673ffffffffffffffffffffffffffffffffffffffff16815260200190815260200160002060008282540192505081905550816002600083815260200190815260200160002060006101000a81548173ffffffffffffffffffffffffffffffffffffffff021916908373ffffffffffffffffffffffffffffffffffffffff160217905550808273ffffffffffffffffffffffffffffffffffffffff16600073ffffffffffffffffffffffffffffffffffffffff167fddf252ad1be2c89b69c2b068fc378daa952ba7f163c4a11628f55a4df523b3ef60405160405180910390a46110ee6000838360016113e6565b5050565b8173ffffffffffffffffffffffffffffffffffffffff168373ffffffffffffffffffffffffffffffffffffffff1603611160576040517f08c379a00000000000000000000000000000000000000000000000000000000081526004016111579061225f565b60405180910390fd5b80600560008573ffffffffffffffffffffffffffffffffffffffff1673ffffffffffffffffffffffffffffffffffffffff16815260200190815260200160002060008473ffffffffffffffffffffffffffffffffffffffff1673ffffffffffffffffffffffffffffffffffffffff16815260200190815260200160002060006101000a81548160ff0219169083151502179055508173ffffffffffffffffffffffffffffffffffffffff168373ffffffffffffffffffffffffffffffffffffffff167f17307eab39ab6107e8899845ad3d59bd9653f200f220920489ca2b5937696c3183604051611251919061179d565b60405180910390a3505050565b611269848484610b9f565b611275848484846113ec565b6112b4576040517f08c379a00000000000000000000000000000000000000000000000000000000081526004016112ab906122f1565b60405180910390fd5b50505050565b606060405180602001604052806000815250905090565b6060600060016112e084611573565b01905060008167ffffffffffffffff8111156112ff576112fe611ab5565b5b6040519080825280601f01601f1916602001820160405280156113315781602001600182028036833780820191505090505b509050600082602001820190505b600115611394578080600190039150507f3031323334353637383961626364656600000000000000000000000000000000600a86061a8153600a858161138857611387612311565b5b0494506000850361133f575b819350505050919050565b60008073ffffffffffffffffffffffffffffffffffffffff166113c183610e98565b73ffffffffffffffffffffffffffffffffffffffff1614159050919050565b50505050565b50505050565b600061140d8473ffffffffffffffffffffffffffffffffffffffff166116c6565b15611566578373ffffffffffffffffffffffffffffffffffffffff1663150b7a02611436610a49565b8786866040518563ffffffff1660e01b81526004016114589493929190612395565b6020604051808303816000875af192505050801561149457506040513d601f19601f8201168201806040525081019061149191906123f6565b60015b611516573d80600081146114c4576040519150601f19603f3d011682016040523d82523d6000602084013e6114c9565b606091505b50600081510361150e576040517f08c379a0000000000000000000000000000000000000000000000000000000008152600401611505906122f1565b60405180910390fd5b805181602001fd5b63150b7a0260e01b7bffffffffffffffffffffffffffffffffffffffffffffffffffffffff1916817bffffffffffffffffffffffffffffffffffffffffffffffffffffffff19161491505061156b565b600190505b949350505050565b600080600090507a184f03e93ff9f4daa797ed6e38ed64bf6a1f01000000000000000083106115d1577a184f03e93ff9f4daa797ed6e38ed64bf6a1f01000000000000000083816115c7576115c6612311565b5b0492506040810190505b6d04ee2d6d415b85acef8100000000831061160e576d04ee2d6d415b85acef8100000000838161160457611603612311565b5b0492506020810190505b662386f26fc10000831061163d57662386f26fc10000838161163357611632612311565b5b0492506010810190505b6305f5e1008310611666576305f5e100838161165c5761165b612311565b5b0492506008810190505b612710831061168b57612710838161168157611680612311565b5b0492506004810190505b606483106116ae57606483816116a4576116a3612311565b5b0492506002810190505b600a83106116bd576001810190505b80915050919050565b6000808273ffffffffffffffffffffffffffffffffffffffff163b119050919050565b6000604051905090565b600080fd5b600080fd5b60007fffffffff0000000000000000000000000000000000000000000000000000000082169050919050565b611732816116fd565b811461173d57600080fd5b50565b60008135905061174f81611729565b92915050565b60006020828403121561176b5761176a6116f3565b5b600061177984828501611740565b91505092915050565b60008115159050919050565b61179781611782565b82525050565b60006020820190506117b2600083018461178e565b92915050565b600081519050919050565b600082825260208201905092915050565b60005b838110156117f25780820151818401526020810190506117d7565b60008484015250505050565b6000601f19601f8301169050919050565b600061181a826117b8565b61182481856117c3565b93506118348185602086016117d4565b61183d816117fe565b840191505092915050565b60006020820190508181036000830152611862818461180f565b905092915050565b6000819050919050565b61187d8161186a565b811461188857600080fd5b50565b60008135905061189a81611874565b92915050565b6000602082840312156118b6576118b56116f3565b5b60006118c48482850161188b565b91505092915050565b600073ffffffffffffffffffffffffffffffffffffffff82169050919050565b60006118f8826118cd565b9050919050565b611908816118ed565b82525050565b600060208201905061192360008301846118ff565b92915050565b611932816118ed565b811461193d57600080fd5b50565b60008135905061194f81611929565b92915050565b6000806040838503121561196c5761196b6116f3565b5b600061197a85828601611940565b925050602061198b8582860161188b565b9150509250929050565b6000806000606084860312156119ae576119ad6116f3565b5b60006119bc86828701611940565b93505060206119cd86828701611940565b92505060406119de8682870161188b565b9150509250925092565b6000602082840312156119fe576119fd6116f3565b5b6000611a0c84828501611940565b91505092915050565b611a1e8161186a565b82525050565b6000602082019050611a396000830184611a15565b92915050565b611a4881611782565b8114611a5357600080fd5b50565b600081359050611a6581611a3f565b92915050565b60008060408385031215611a8257611a816116f3565b5b6000611a9085828601611940565b9250506020611aa185828601611a56565b9150509250929050565b600080fd5b600080fd5b7f4e487b7100000000000000000000000000000000000000000000000000000000600052604160045260246000fd5b611aed826117fe565b810181811067ffffffffffffffff82111715611b0c57611b0b611ab5565b5b80604052505050565b6000611b1f6116e9565b9050611b2b8282611ae4565b919050565b600067ffffffffffffffff821115611b4b57611b4a611ab5565b5b611b54826117fe565b9050602081019050919050565b82818337600083830152505050565b6000611b83611b7e84611b30565b611b15565b905082815260208101848484011115611b9f57611b9e611ab0565b5b611baa848285611b61565b509392505050565b600082601f830112611bc757611bc6611aab565b5b8135611bd7848260208601611b70565b91505092915050565b60008060008060808587031215611bfa57611bf96116f3565b5b6000611c0887828801611940565b9450506020611c1987828801611940565b9350506040611c2a8782880161188b565b925050606085013567ffffffffffffffff811115611c4b57611c4a6116f8565b5b611c5787828801611bb2565b91505092959194509250565b60008060408385031215611c7a57611c796116f3565b5b6000611c8885828601611940565b9250506020611c9985828601611940565b9150509250929050565b7f4e487b7100000000000000000000000000000000000000000000000000000000600052602260045260246000fd5b60006002820490506001821680611cea57607f821691505b602082108103611cfd57611cfc611ca3565b5b50919050565b7f4552433732313a20617070726f76616c20746f2063757272656e74206f776e6560008201527f7200000000000000000000000000000000000000000000000000000000000000602082015250565b6000611d5f6021836117c3565b9150611d6a82611d03565b604082019050919050565b60006020820190508181036000830152611d8e81611d52565b9050919050565b7f4552433732313a20617070726f76652063616c6c6572206973206e6f7420746f60008201527f6b656e206f776e6572206f7220617070726f76656420666f7220616c6c000000602082015250565b6000611df1603d836117c3565b9150611dfc82611d95565b604082019050919050565b60006020820190508181036000830152611e2081611de4565b9050919050565b7f4552433732313a2063616c6c6572206973206e6f7420746f6b656e206f776e6560008201527f72206f7220617070726f76656400000000000000000000000000000000000000602082015250565b6000611e83602d836117c3565b9150611e8e82611e27565b604082019050919050565b60006020820190508181036000830152611eb281611e76565b9050919050565b7f4552433732313a20696e76616c696420746f6b656e2049440000000000000000600082015250565b6000611eef6018836117c3565b9150611efa82611eb9565b602082019050919050565b60006020820190508181036000830152611f1e81611ee2565b9050919050565b7f4552433732313a2061646472657373207a65726f206973206e6f74206120766160008201527f6c6964206f776e65720000000000000000000000000000000000000000000000602082015250565b6000611f816029836117c3565b9150611f8c82611f25565b604082019050919050565b60006020820190508181036000830152611fb081611f74565b9050919050565b600081905092915050565b6000611fcd826117b8565b611fd78185611fb7565b9350611fe78185602086016117d4565b80840191505092915050565b6000611fff8285611fc2565b915061200b8284611fc2565b91508190509392505050565b7f4552433732313a207472616e736665722066726f6d20696e636f72726563742060008201527f6f776e6572000000000000000000000000000000000000000000000000000000602082015250565b60006120736025836117c3565b915061207e82612017565b604082019050919050565b600060208201905081810360008301526120a281612066565b9050919050565b7f4552433732313a207472616e7366657220746f20746865207a65726f2061646460008201527f7265737300000000000000000000000000000000000000000000000000000000602082015250565b60006121056024836117c3565b9150612110826120a9565b604082019050919050565b60006020820190508181036000830152612134816120f8565b9050919050565b7f4552433732313a206d696e7420746f20746865207a65726f2061646472657373600082015250565b60006121716020836117c3565b915061217c8261213b565b602082019050919050565b600060208201905081810360008301526121a081612164565b9050919050565b7f4552433732313a20746f6b656e20616c7265616479206d696e74656400000000600082015250565b60006121dd601c836117c3565b91506121e8826121a7565b602082019050919050565b6000602082019050818103600083015261220c816121d0565b9050919050565b7f4552433732313a20617070726f766520746f2063616c6c657200000000000000600082015250565b60006122496019836117c3565b915061225482612213565b602082019050919050565b600060208201905081810360008301526122788161223c565b9050919050565b7f4552433732313a207472616e7366657220746f206e6f6e20455243373231526560008201527f63656976657220696d706c656d656e7465720000000000000000000000000000602082015250565b60006122db6032836117c3565b91506122e68261227f565b604082019050919050565b6000602082019050818103600083015261230a816122ce565b9050919050565b7f4e487b7100000000000000000000000000000000000000000000000000000000600052601260045260246000fd5b600081519050919050565b600082825260208201905092915050565b600061236782612340565b612371818561234b565b93506123818185602086016117d4565b61238a816117fe565b840191505092915050565b60006080820190506123aa60008301876118ff565b6123b760208301866118ff565b6123c46040830185611a15565b81810360608301526123d6818461235c565b905095945050505050565b6000815190506123f081611729565b92915050565b60006020828403121561240c5761240b6116f3565b5b600061241a848285016123e1565b9150509291505056fea26469706673582212207476f63ce4653c3b18b826210594461d6a08bd1e143f84ecaa2125b635fb09b664736f6c63430008130033",
  "linkReferences": {},
  "deployedLinkReferences": {}
}