{
  "_format": "hh-sol-artifact-1",
  "contractName": "Mynft",
  "sourceName": "contracts/Mynft.sol",
  "abi": [
    {
      "inputs": [],
      "stateMutability": "nonpayable",
      "type": "constructor"
    },
    {
      "anonymous": false,
      "inputs": [
        {
          "indexed": true,
          "internalType": "address",
          "name": "owner",
          "type": "address"
        },
        {
          "indexed": true,
          "internalType": "address",
          "name": "approved",
          "type": "address"
        },
        {
          "indexed": true,
          "internalType": "uint256",
          "name": "tokenId",
          "type": "uint256"
        }
      ],
      "name": "Approval",
      "type": "event"
    },
    {
      "anonymous": false,
      "inputs": [
        {
          "indexed": true,
          "internalType": "address",
          "name": "owner",
          "type": "address"
        },
        {
          "indexed": true,
          "internalType": "address",
          "name": "operator",
          "type": "address"
        },
        {
          "indexed": false,
          "internalType": "bool",
          "name": "approved",
          "type": "bool"
        }
      ],
      "name": "ApprovalForAll",
      "type": "event"
    },
    {
      "anonymous": false,
      "inputs": [
        {
          "indexed": true,
          "internalType": "address",
          "name": "from",
          "type": "address"
        },
        {
          "indexed": true,
          "internalType": "address",
          "name": "to",
          "type": "address"
        },
        {
          "indexed": true,
          "internalType": "uint256",
          "name": "tokenId",
          "type": "uint256"
        }
      ],
      "name": "Transfer",
      "type": "event"
    },
    {
      "inputs": [
        {
          "internalType": "address",
          "name": "to",
          "type": "address"
        },
        {
          "internalType": "uint256",
          "name": "tokenId",
          "type": "uint256"
        }
      ],
      "name": "approve",
      "outputs": [],
      "stateMutability": "nonpayable",
      "type": "function"
    },
    {
      "inputs": [
        {
          "internalType": "address",
          "name": "owner",
          "type": "address"
        }
      ],
      "name": "balanceOf",
      "outputs": [
        {
          "internalType": "uint256",
          "name": "",
          "type": "uint256"
        }
      ],
      "stateMutability": "view",
      "type": "function"
    },
    {
      "inputs": [
        {
          "internalType": "uint256",
          "name": "tokenId",
          "type": "uint256"
        }
      ],
      "name": "getApproved",
      "outputs": [
        {
          "internalType": "address",
          "name": "",
          "type": "address"
        }
      ],
      "stateMutability": "view",
      "type": "function"
    },
    {
      "inputs": [
        {
          "internalType": "address",
          "name": "owner",
          "type": "address"
        },
        {
          "internalType": "address",
          "name": "operator",
          "type": "address"
        }
      ],
      "name": "isApprovedForAll",
      "outputs": [
        {
          "internalType": "bool",
          "name": "",
          "type": "bool"
        }
      ],
      "stateMutability": "view",
      "type": "function"
    },
    {
      "inputs": [
        {
          "internalType": "uint256",
          "name": "tokenId",
          "type": "uint256"
        },
        {
          "internalType": "uint256",
          "name": "price",
          "type": "uint256"
        }
      ],
      "name": "mint",
      "outputs": [],
      "stateMutability": "nonpayable",
      "type": "function"
    },
    {
      "inputs": [],
      "name": "name",
      "outputs": [
        {
          "internalType": "string",
          "name": "",
          "type": "string"
        }
      ],
      "stateMutability": "view",
      "type": "function"
    },
    {
      "inputs": [
        {
          "internalType": "uint256",
          "name": "tokenId",
          "type": "uint256"
        }
      ],
      "name": "ownerOf",
      "outputs": [
        {
          "internalType": "address",
          "name": "",
          "type": "address"
        }
      ],
      "stateMutability": "view",
      "type": "function"
    },
    {
      "inputs": [
        {
          "internalType": "uint256",
          "name": "tokenid",
          "type": "uint256"
        }
      ],
      "name": "priceoftoken",
      "outputs": [
        {
          "internalType": "uint256",
          "name": "",
          "type": "uint256"
        }
      ],
      "stateMutability": "view",
      "type": "function"
    },
    {
      "inputs": [],
      "name": "returnlistoftokens",
      "outputs": [
        {
          "internalType": "uint256[]",
          "name": "",
          "type": "uint256[]"
        }
      ],
      "stateMutability": "view",
      "type": "function"
    },
    {
      "inputs": [
        {
          "internalType": "address",
          "name": "from",
          "type": "address"
        },
        {
          "internalType": "address",
          "name": "to",
          "type": "address"
        },
        {
          "internalType": "uint256",
          "name": "tokenId",
          "type": "uint256"
        }
      ],
      "name": "safeTransferFrom",
      "outputs": [],
      "stateMutability": "nonpayable",
      "type": "function"
    },
    {
      "inputs": [
        {
          "internalType": "address",
          "name": "from",
          "type": "address"
        },
        {
          "internalType": "address",
          "name": "to",
          "type": "address"
        },
        {
          "internalType": "uint256",
          "name": "tokenId",
          "type": "uint256"
        },
        {
          "internalType": "bytes",
          "name": "data",
          "type": "bytes"
        }
      ],
      "name": "safeTransferFrom",
      "outputs": [],
      "stateMutability": "nonpayable",
      "type": "function"
    },
    {
      "inputs": [
        {
          "internalType": "address",
          "name": "operator",
          "type": "address"
        },
        {
          "internalType": "bool",
          "name": "approved",
          "type": "bool"
        }
      ],
      "name": "setApprovalForAll",
      "outputs": [],
      "stateMutability": "nonpayable",
      "type": "function"
    },
    {
      "inputs": [
        {
          "internalType": "bytes4",
          "name": "interfaceId",
          "type": "bytes4"
        }
      ],
      "name": "supportsInterface",
      "outputs": [
        {
          "internalType": "bool",
          "name": "",
          "type": "bool"
        }
      ],
      "stateMutability": "view",
      "type": "function"
    },
    {
      "inputs": [],
      "name": "symbol",
      "outputs": [
        {
          "internalType": "string",
          "name": "",
          "type": "string"
        }
      ],
      "stateMutability": "view",
      "type": "function"
    },
    {
      "inputs": [
        {
          "internalType": "uint256",
          "name": "tokenId",
          "type": "uint256"
        }
      ],
      "name": "tokenURI",
      "outputs": [
        {
          "internalType": "string",
          "name": "",
          "type": "string"
        }
      ],
      "stateMutability": "view",
      "type": "function"
    },
    {
      "inputs": [
        {
          "internalType": "address",
          "name": "from",
          "type": "address"
        },
        {
          "internalType": "address",
          "name": "to",
          "type": "address"
        },
        {
          "internalType": "uint256",
          "name": "tokenId",
          "type": "uint256"
        }
      ],
      "name": "transferFrom",
      "outputs": [],
      "stateMutability": "nonpayable",
      "type": "function"
    }
  ],
  "bytecode": "0x60806040523480156200001157600080fd5b506040518060400160405280600a81526020017f6f70656e6d61726b6574000000000000000000000000000000000000000000008152506040518060400160405280600481526020017f6f6d6b740000000000000000000000000000000000000000000000000000000081525081600090816200008f919062000324565b508060019081620000a1919062000324565b5050506200040b565b600081519050919050565b7f4e487b7100000000000000000000000000000000000000000000000000000000600052604160045260246000fd5b7f4e487b7100000000000000000000000000000000000000000000000000000000600052602260045260246000fd5b600060028204905060018216806200012c57607f821691505b602082108103620001425762000141620000e4565b5b50919050565b60008190508160005260206000209050919050565b60006020601f8301049050919050565b600082821b905092915050565b600060088302620001ac7fffffffffffffffffffffffffffffffffffffffffffffffffffffffffffffffff826200016d565b620001b886836200016d565b95508019841693508086168417925050509392505050565b6000819050919050565b6000819050919050565b600062000205620001ff620001f984620001d0565b620001da565b620001d0565b9050919050565b6000819050919050565b6200022183620001e4565b6200023962000230826200020c565b8484546200017a565b825550505050565b600090565b6200025062000241565b6200025d81848462000216565b505050565b5b8181101562000285576200027960008262000246565b60018101905062000263565b5050565b601f821115620002d4576200029e8162000148565b620002a9846200015d565b81016020851015620002b9578190505b620002d1620002c8856200015d565b83018262000262565b50505b505050565b600082821c905092915050565b6000620002f960001984600802620002d9565b1980831691505092915050565b6000620003148383620002e6565b9150826002028217905092915050565b6200032f82620000aa565b67ffffffffffffffff8111156200034b576200034a620000b5565b5b62000357825462000113565b6200036482828562000289565b600060209050601f8311600181146200039c576000841562000387578287015190505b62000393858262000306565b86555062000403565b601f198416620003ac8662000148565b60005b82811015620003d657848901518255600182019150602085019450602081019050620003af565b86831015620003f65784890151620003f2601f891682620002e6565b8355505b6001600288020188555050505b505050505050565b6126ef806200041b6000396000f3fe608060405234801561001057600080fd5b50600436106101005760003560e01c80636352211e11610097578063b88d4fde11610066578063b88d4fde146102ab578063b985bc97146102c7578063c87b56dd146102f7578063e985e9c51461032757610100565b80636352211e1461021157806370a082311461024157806395d89b4114610271578063a22cb4651461028f57610100565b80631b2ef1ca116100d35780631b2ef1ca1461019f57806323b872dd146101bb57806336066880146101d757806342842e0e146101f557610100565b806301ffc9a71461010557806306fdde0314610135578063081812fc14610153578063095ea7b314610183575b600080fd5b61011f600480360381019061011a91906118cb565b610357565b60405161012c9190611913565b60405180910390f35b61013d610439565b60405161014a91906119be565b60405180910390f35b61016d60048036038101906101689190611a16565b6104cb565b60405161017a9190611a84565b60405180910390f35b61019d60048036038101906101989190611acb565b610511565b005b6101b960048036038101906101b49190611b0b565b610628565b005b6101d560048036038101906101d09190611b4b565b6106cf565b005b6101df61072f565b6040516101ec9190611c5c565b60405180910390f35b61020f600480360381019061020a9190611b4b565b610787565b005b61022b60048036038101906102269190611a16565b6107a7565b6040516102389190611a84565b60405180910390f35b61025b60048036038101906102569190611c7e565b61082d565b6040516102689190611cba565b60405180910390f35b6102796108e4565b60405161028691906119be565b60405180910390f35b6102a960048036038101906102a49190611d01565b610976565b005b6102c560048036038101906102c09190611e76565b61098c565b005b6102e160048036038101906102dc9190611a16565b6109ee565b6040516102ee9190611cba565b60405180910390f35b610311600480360381019061030c9190611a16565b610a0e565b60405161031e91906119be565b60405180910390f35b610341600480360381019061033c9190611ef9565b610a76565b60405161034e9190611913565b60405180910390f35b60007f80ac58cd000000000000000000000000000000000000000000000000000000007bffffffffffffffffffffffffffffffffffffffffffffffffffffffff1916827bffffffffffffffffffffffffffffffffffffffffffffffffffffffff1916148061042257507f5b5e139f000000000000000000000000000000000000000000000000000000007bffffffffffffffffffffffffffffffffffffffffffffffffffffffff1916827bffffffffffffffffffffffffffffffffffffffffffffffffffffffff1916145b80610432575061043182610b0a565b5b9050919050565b60606000805461044890611f68565b80601f016020809104026020016040519081016040528092919081815260200182805461047490611f68565b80156104c15780601f10610496576101008083540402835291602001916104c1565b820191906000526020600020905b8154815290600101906020018083116104a457829003601f168201915b5050505050905090565b60006104d682610b74565b6004600083815260200190815260200160002060009054906101000a900473ffffffffffffffffffffffffffffffffffffffff169050919050565b600061051c826107a7565b90508073ffffffffffffffffffffffffffffffffffffffff168373ffffffffffffffffffffffffffffffffffffffff160361058c576040517f08c379a00000000000000000000000000000000000000000000000000000000081526004016105839061200b565b60405180910390fd5b8073ffffffffffffffffffffffffffffffffffffffff166105ab610bbf565b73ffffffffffffffffffffffffffffffffffffffff1614806105da57506105d9816105d4610bbf565b610a76565b5b610619576040517f08c379a00000000000000000000000000000000000000000000000000000000081526004016106109061209d565b60405180910390fd5b6106238383610bc7565b505050565b6106323383610c80565b6007829080600181540180825580915050600190039060005260206000200160009091909190915055336006600084815260200190815260200160002060000160006101000a81548173ffffffffffffffffffffffffffffffffffffffff021916908373ffffffffffffffffffffffffffffffffffffffff1602179055508060066000848152602001908152602001600020600101819055505050565b6106e06106da610bbf565b82610e9d565b61071f576040517f08c379a00000000000000000000000000000000000000000000000000000000081526004016107169061212f565b60405180910390fd5b61072a838383610f32565b505050565b6060600780548060200260200160405190810160405280929190818152602001828054801561077d57602002820191906000526020600020905b815481526020019060010190808311610769575b5050505050905090565b6107a28383836040518060200160405280600081525061098c565b505050565b6000806107b38361122b565b9050600073ffffffffffffffffffffffffffffffffffffffff168173ffffffffffffffffffffffffffffffffffffffff1603610824576040517f08c379a000000000000000000000000000000000000000000000000000000000815260040161081b9061219b565b60405180910390fd5b80915050919050565b60008073ffffffffffffffffffffffffffffffffffffffff168273ffffffffffffffffffffffffffffffffffffffff160361089d576040517f08c379a00000000000000000000000000000000000000000000000000000000081526004016108949061222d565b60405180910390fd5b600360008373ffffffffffffffffffffffffffffffffffffffff1673ffffffffffffffffffffffffffffffffffffffff168152602001908152602001600020549050919050565b6060600180546108f390611f68565b80601f016020809104026020016040519081016040528092919081815260200182805461091f90611f68565b801561096c5780601f106109415761010080835404028352916020019161096c565b820191906000526020600020905b81548152906001019060200180831161094f57829003601f168201915b5050505050905090565b610988610981610bbf565b8383611268565b5050565b61099d610997610bbf565b83610e9d565b6109dc576040517f08c379a00000000000000000000000000000000000000000000000000000000081526004016109d39061212f565b60405180910390fd5b6109e8848484846113d4565b50505050565b600060066000838152602001908152602001600020600101549050919050565b6060610a1982610b74565b6000610a23611430565b90506000815111610a435760405180602001604052806000815250610a6e565b80610a4d84611447565b604051602001610a5e929190612289565b6040516020818303038152906040525b915050919050565b6000600560008473ffffffffffffffffffffffffffffffffffffffff1673ffffffffffffffffffffffffffffffffffffffff16815260200190815260200160002060008373ffffffffffffffffffffffffffffffffffffffff1673ffffffffffffffffffffffffffffffffffffffff16815260200190815260200160002060009054906101000a900460ff16905092915050565b60007f01ffc9a7000000000000000000000000000000000000000000000000000000007bffffffffffffffffffffffffffffffffffffffffffffffffffffffff1916827bffffffffffffffffffffffffffffffffffffffffffffffffffffffff1916149050919050565b610b7d81611515565b610bbc576040517f08c379a0000000000000000000000000000000000000000000000000000000008152600401610bb39061219b565b60405180910390fd5b50565b600033905090565b816004600083815260200190815260200160002060006101000a81548173ffffffffffffffffffffffffffffffffffffffff021916908373ffffffffffffffffffffffffffffffffffffffff160217905550808273ffffffffffffffffffffffffffffffffffffffff16610c3a836107a7565b73ffffffffffffffffffffffffffffffffffffffff167f8c5be1e5ebec7d5bd14f71427d1e84f3dd0314c0f7b2291e5b200ac8c7c3b92560405160405180910390a45050565b600073ffffffffffffffffffffffffffffffffffffffff168273ffffffffffffffffffffffffffffffffffffffff1603610cef576040517f08c379a0000000000000000000000000000000000000000000000000000000008152600401610ce6906122f9565b60405180910390fd5b610cf881611515565b15610d38576040517f08c379a0000000000000000000000000000000000000000000000000000000008152600401610d2f90612365565b60405180910390fd5b610d46600083836001611556565b610d4f81611515565b15610d8f576040517f08c379a0000000000000000000000000000000000000000000000000000000008152600401610d8690612365565b60405180910390fd5b6001600360008473ffffffffffffffffffffffffffffffffffffffff1673ffffffffffffffffffffffffffffffffffffffff16815260200190815260200160002060008282540192505081905550816002600083815260200190815260200160002060006101000a81548173ffffffffffffffffffffffffffffffffffffffff021916908373ffffffffffffffffffffffffffffffffffffffff160217905550808273ffffffffffffffffffffffffffffffffffffffff16600073ffffffffffffffffffffffffffffffffffffffff167fddf252ad1be2c89b69c2b068fc378daa952ba7f163c4a11628f55a4df523b3ef60405160405180910390a4610e9960008383600161155c565b5050565b600080610ea9836107a7565b90508073ffffffffffffffffffffffffffffffffffffffff168473ffffffffffffffffffffffffffffffffffffffff161480610eeb5750610eea8185610a76565b5b80610f2957508373ffffffffffffffffffffffffffffffffffffffff16610f11846104cb565b73ffffffffffffffffffffffffffffffffffffffff16145b91505092915050565b8273ffffffffffffffffffffffffffffffffffffffff16610f52826107a7565b73ffffffffffffffffffffffffffffffffffffffff1614610fa8576040517f08c379a0000000000000000000000000000000000000000000000000000000008152600401610f9f906123f7565b60405180910390fd5b600073ffffffffffffffffffffffffffffffffffffffff168273ffffffffffffffffffffffffffffffffffffffff1603611017576040517f08c379a000000000000000000000000000000000000000000000000000000000815260040161100e90612489565b60405180910390fd5b6110248383836001611556565b8273ffffffffffffffffffffffffffffffffffffffff16611044826107a7565b73ffffffffffffffffffffffffffffffffffffffff161461109a576040517f08c379a0000000000000000000000000000000000000000000000000000000008152600401611091906123f7565b60405180910390fd5b6004600082815260200190815260200160002060006101000a81549073ffffffffffffffffffffffffffffffffffffffff02191690556001600360008573ffffffffffffffffffffffffffffffffffffffff1673ffffffffffffffffffffffffffffffffffffffff168152602001908152602001600020600082825403925050819055506001600360008473ffffffffffffffffffffffffffffffffffffffff1673ffffffffffffffffffffffffffffffffffffffff16815260200190815260200160002060008282540192505081905550816002600083815260200190815260200160002060006101000a81548173ffffffffffffffffffffffffffffffffffffffff021916908373ffffffffffffffffffffffffffffffffffffffff160217905550808273ffffffffffffffffffffffffffffffffffffffff168473ffffffffffffffffffffffffffffffffffffffff167fddf252ad1be2c89b69c2b068fc378daa952ba7f163c4a11628f55a4df523b3ef60405160405180910390a4611226838383600161155c565b505050565b60006002600083815260200190815260200160002060009054906101000a900473ffffffffffffffffffffffffffffffffffffffff169050919050565b8173ffffffffffffffffffffffffffffffffffffffff168373ffffffffffffffffffffffffffffffffffffffff16036112d6576040517f08c379a00000000000000000000000000000000000000000000000000000000081526004016112cd906124f5565b60405180910390fd5b80600560008573ffffffffffffffffffffffffffffffffffffffff1673ffffffffffffffffffffffffffffffffffffffff16815260200190815260200160002060008473ffffffffffffffffffffffffffffffffffffffff1673ffffffffffffffffffffffffffffffffffffffff16815260200190815260200160002060006101000a81548160ff0219169083151502179055508173ffffffffffffffffffffffffffffffffffffffff168373ffffffffffffffffffffffffffffffffffffffff167f17307eab39ab6107e8899845ad3d59bd9653f200f220920489ca2b5937696c31836040516113c79190611913565b60405180910390a3505050565b6113df848484610f32565b6113eb84848484611562565b61142a576040517f08c379a000000000000000000000000000000000000000000000000000000000815260040161142190612587565b60405180910390fd5b50505050565b606060405180602001604052806000815250905090565b606060006001611456846116e9565b01905060008167ffffffffffffffff81111561147557611474611d4b565b5b6040519080825280601f01601f1916602001820160405280156114a75781602001600182028036833780820191505090505b509050600082602001820190505b60011561150a578080600190039150507f3031323334353637383961626364656600000000000000000000000000000000600a86061a8153600a85816114fe576114fd6125a7565b5b049450600085036114b5575b819350505050919050565b60008073ffffffffffffffffffffffffffffffffffffffff166115378361122b565b73ffffffffffffffffffffffffffffffffffffffff1614159050919050565b50505050565b50505050565b60006115838473ffffffffffffffffffffffffffffffffffffffff1661183c565b156116dc578373ffffffffffffffffffffffffffffffffffffffff1663150b7a026115ac610bbf565b8786866040518563ffffffff1660e01b81526004016115ce949392919061262b565b6020604051808303816000875af192505050801561160a57506040513d601f19601f82011682018060405250810190611607919061268c565b60015b61168c573d806000811461163a576040519150601f19603f3d011682016040523d82523d6000602084013e61163f565b606091505b506000815103611684576040517f08c379a000000000000000000000000000000000000000000000000000000000815260040161167b90612587565b60405180910390fd5b805181602001fd5b63150b7a0260e01b7bffffffffffffffffffffffffffffffffffffffffffffffffffffffff1916817bffffffffffffffffffffffffffffffffffffffffffffffffffffffff1916149150506116e1565b600190505b949350505050565b600080600090507a184f03e93ff9f4daa797ed6e38ed64bf6a1f0100000000000000008310611747577a184f03e93ff9f4daa797ed6e38ed64bf6a1f010000000000000000838161173d5761173c6125a7565b5b0492506040810190505b6d04ee2d6d415b85acef81000000008310611784576d04ee2d6d415b85acef8100000000838161177a576117796125a7565b5b0492506020810190505b662386f26fc1000083106117b357662386f26fc1000083816117a9576117a86125a7565b5b0492506010810190505b6305f5e10083106117dc576305f5e10083816117d2576117d16125a7565b5b0492506008810190505b61271083106118015761271083816117f7576117f66125a7565b5b0492506004810190505b60648310611824576064838161181a576118196125a7565b5b0492506002810190505b600a8310611833576001810190505b80915050919050565b6000808273ffffffffffffffffffffffffffffffffffffffff163b119050919050565b6000604051905090565b600080fd5b600080fd5b60007fffffffff0000000000000000000000000000000000000000000000000000000082169050919050565b6118a881611873565b81146118b357600080fd5b50565b6000813590506118c58161189f565b92915050565b6000602082840312156118e1576118e0611869565b5b60006118ef848285016118b6565b91505092915050565b60008115159050919050565b61190d816118f8565b82525050565b60006020820190506119286000830184611904565b92915050565b600081519050919050565b600082825260208201905092915050565b60005b8381101561196857808201518184015260208101905061194d565b60008484015250505050565b6000601f19601f8301169050919050565b60006119908261192e565b61199a8185611939565b93506119aa81856020860161194a565b6119b381611974565b840191505092915050565b600060208201905081810360008301526119d88184611985565b905092915050565b6000819050919050565b6119f3816119e0565b81146119fe57600080fd5b50565b600081359050611a10816119ea565b92915050565b600060208284031215611a2c57611a2b611869565b5b6000611a3a84828501611a01565b91505092915050565b600073ffffffffffffffffffffffffffffffffffffffff82169050919050565b6000611a6e82611a43565b9050919050565b611a7e81611a63565b82525050565b6000602082019050611a996000830184611a75565b92915050565b611aa881611a63565b8114611ab357600080fd5b50565b600081359050611ac581611a9f565b92915050565b60008060408385031215611ae257611ae1611869565b5b6000611af085828601611ab6565b9250506020611b0185828601611a01565b9150509250929050565b60008060408385031215611b2257611b21611869565b5b6000611b3085828601611a01565b9250506020611b4185828601611a01565b9150509250929050565b600080600060608486031215611b6457611b63611869565b5b6000611b7286828701611ab6565b9350506020611b8386828701611ab6565b9250506040611b9486828701611a01565b9150509250925092565b600081519050919050565b600082825260208201905092915050565b6000819050602082019050919050565b611bd3816119e0565b82525050565b6000611be58383611bca565b60208301905092915050565b6000602082019050919050565b6000611c0982611b9e565b611c138185611ba9565b9350611c1e83611bba565b8060005b83811015611c4f578151611c368882611bd9565b9750611c4183611bf1565b925050600181019050611c22565b5085935050505092915050565b60006020820190508181036000830152611c768184611bfe565b905092915050565b600060208284031215611c9457611c93611869565b5b6000611ca284828501611ab6565b91505092915050565b611cb4816119e0565b82525050565b6000602082019050611ccf6000830184611cab565b92915050565b611cde816118f8565b8114611ce957600080fd5b50565b600081359050611cfb81611cd5565b92915050565b60008060408385031215611d1857611d17611869565b5b6000611d2685828601611ab6565b9250506020611d3785828601611cec565b9150509250929050565b600080fd5b600080fd5b7f4e487b7100000000000000000000000000000000000000000000000000000000600052604160045260246000fd5b611d8382611974565b810181811067ffffffffffffffff82111715611da257611da1611d4b565b5b80604052505050565b6000611db561185f565b9050611dc18282611d7a565b919050565b600067ffffffffffffffff821115611de157611de0611d4b565b5b611dea82611974565b9050602081019050919050565b82818337600083830152505050565b6000611e19611e1484611dc6565b611dab565b905082815260208101848484011115611e3557611e34611d46565b5b611e40848285611df7565b509392505050565b600082601f830112611e5d57611e5c611d41565b5b8135611e6d848260208601611e06565b91505092915050565b60008060008060808587031215611e9057611e8f611869565b5b6000611e9e87828801611ab6565b9450506020611eaf87828801611ab6565b9350506040611ec087828801611a01565b925050606085013567ffffffffffffffff811115611ee157611ee061186e565b5b611eed87828801611e48565b91505092959194509250565b60008060408385031215611f1057611f0f611869565b5b6000611f1e85828601611ab6565b9250506020611f2f85828601611ab6565b9150509250929050565b7f4e487b7100000000000000000000000000000000000000000000000000000000600052602260045260246000fd5b60006002820490506001821680611f8057607f821691505b602082108103611f9357611f92611f39565b5b50919050565b7f4552433732313a20617070726f76616c20746f2063757272656e74206f776e6560008201527f7200000000000000000000000000000000000000000000000000000000000000602082015250565b6000611ff5602183611939565b915061200082611f99565b604082019050919050565b6000602082019050818103600083015261202481611fe8565b9050919050565b7f4552433732313a20617070726f76652063616c6c6572206973206e6f7420746f60008201527f6b656e206f776e6572206f7220617070726f76656420666f7220616c6c000000602082015250565b6000612087603d83611939565b91506120928261202b565b604082019050919050565b600060208201905081810360008301526120b68161207a565b9050919050565b7f4552433732313a2063616c6c6572206973206e6f7420746f6b656e206f776e6560008201527f72206f7220617070726f76656400000000000000000000000000000000000000602082015250565b6000612119602d83611939565b9150612124826120bd565b604082019050919050565b600060208201905081810360008301526121488161210c565b9050919050565b7f4552433732313a20696e76616c696420746f6b656e2049440000000000000000600082015250565b6000612185601883611939565b91506121908261214f565b602082019050919050565b600060208201905081810360008301526121b481612178565b9050919050565b7f4552433732313a2061646472657373207a65726f206973206e6f74206120766160008201527f6c6964206f776e65720000000000000000000000000000000000000000000000602082015250565b6000612217602983611939565b9150612222826121bb565b604082019050919050565b600060208201905081810360008301526122468161220a565b9050919050565b600081905092915050565b60006122638261192e565b61226d818561224d565b935061227d81856020860161194a565b80840191505092915050565b60006122958285612258565b91506122a18284612258565b91508190509392505050565b7f4552433732313a206d696e7420746f20746865207a65726f2061646472657373600082015250565b60006122e3602083611939565b91506122ee826122ad565b602082019050919050565b60006020820190508181036000830152612312816122d6565b9050919050565b7f4552433732313a20746f6b656e20616c7265616479206d696e74656400000000600082015250565b600061234f601c83611939565b915061235a82612319565b602082019050919050565b6000602082019050818103600083015261237e81612342565b9050919050565b7f4552433732313a207472616e736665722066726f6d20696e636f72726563742060008201527f6f776e6572000000000000000000000000000000000000000000000000000000602082015250565b60006123e1602583611939565b91506123ec82612385565b604082019050919050565b60006020820190508181036000830152612410816123d4565b9050919050565b7f4552433732313a207472616e7366657220746f20746865207a65726f2061646460008201527f7265737300000000000000000000000000000000000000000000000000000000602082015250565b6000612473602483611939565b915061247e82612417565b604082019050919050565b600060208201905081810360008301526124a281612466565b9050919050565b7f4552433732313a20617070726f766520746f2063616c6c657200000000000000600082015250565b60006124df601983611939565b91506124ea826124a9565b602082019050919050565b6000602082019050818103600083015261250e816124d2565b9050919050565b7f4552433732313a207472616e7366657220746f206e6f6e20455243373231526560008201527f63656976657220696d706c656d656e7465720000000000000000000000000000602082015250565b6000612571603283611939565b915061257c82612515565b604082019050919050565b600060208201905081810360008301526125a081612564565b9050919050565b7f4e487b7100000000000000000000000000000000000000000000000000000000600052601260045260246000fd5b600081519050919050565b600082825260208201905092915050565b60006125fd826125d6565b61260781856125e1565b935061261781856020860161194a565b61262081611974565b840191505092915050565b60006080820190506126406000830187611a75565b61264d6020830186611a75565b61265a6040830185611cab565b818103606083015261266c81846125f2565b905095945050505050565b6000815190506126868161189f565b92915050565b6000602082840312156126a2576126a1611869565b5b60006126b084828501612677565b9150509291505056fea26469706673582212200d6a49af952a8fa3f4d0c69bf3b2377b20345c5adddfd45f74ac3f5699a3404164736f6c63430008130033",
  "linkReferences": {},
  "deployedLinkReferences": {}
}