{
  "_format": "hh-sol-artifact-1",
  "contractName": "Marketplace",
  "sourceName": "contracts/Marketplace.sol",
  "abi": [
    {
      "inputs": [
        {
          "internalType": "address",
          "name": "ads",
          "type": "address"
        }
      ],
      "stateMutability": "nonpayable",
      "type": "constructor"
    },
    {
      "inputs": [
        {
          "internalType": "uint256",
          "name": "tokenId",
          "type": "uint256"
        }
      ],
      "name": "Buy",
      "outputs": [
        {
          "internalType": "bool",
          "name": "",
          "type": "bool"
        }
      ],
      "stateMutability": "payable",
      "type": "function"
    },
    {
      "inputs": [
        {
          "internalType": "uint256",
          "name": "tokenID",
          "type": "uint256"
        },
        {
          "internalType": "uint256",
          "name": "price",
          "type": "uint256"
        }
      ],
      "name": "List",
      "outputs": [],
      "stateMutability": "nonpayable",
      "type": "function"
    },
    {
      "inputs": [
        {
          "internalType": "uint256",
          "name": "",
          "type": "uint256"
        }
      ],
      "name": "availabletoken",
      "outputs": [
        {
          "internalType": "uint256",
          "name": "",
          "type": "uint256"
        }
      ],
      "stateMutability": "view",
      "type": "function"
    },
    {
      "inputs": [
        {
          "internalType": "address",
          "name": "ads",
          "type": "address"
        }
      ],
      "name": "totaltokensof",
      "outputs": [
        {
          "internalType": "uint256",
          "name": "",
          "type": "uint256"
        }
      ],
      "stateMutability": "view",
      "type": "function"
    }
  ],
  "bytecode": "0x608060405234801561001057600080fd5b506040516108de3803806108de833981810160405281019061003291906100db565b806000806101000a81548173ffffffffffffffffffffffffffffffffffffffff021916908373ffffffffffffffffffffffffffffffffffffffff16021790555050610108565b600080fd5b600073ffffffffffffffffffffffffffffffffffffffff82169050919050565b60006100a88261007d565b9050919050565b6100b88161009d565b81146100c357600080fd5b50565b6000815190506100d5816100af565b92915050565b6000602082840312156100f1576100f0610078565b5b60006100ff848285016100c6565b91505092915050565b6107c7806101176000396000f3fe60806040526004361061003f5760003560e01c80633e32821814610044578063c38e783214610074578063d59badbd1461009d578063f2e2efc2146100da575b600080fd5b61005e60048036038101906100599190610519565b610117565b60405161006b9190610561565b60405180910390f35b34801561008057600080fd5b5061009b6004803603810190610096919061057c565b6102ea565b005b3480156100a957600080fd5b506100c460048036038101906100bf919061061a565b610416565b6040516100d19190610656565b60405180910390f35b3480156100e657600080fd5b5061010160048036038101906100fc9190610519565b6104ba565b60405161010e9190610656565b60405180910390f35b60006002600083815260200190815260200160002060010154341015610172576040517f08c379a0000000000000000000000000000000000000000000000000000000008152600401610169906106ce565b60405180910390fd5b60008054906101000a900473ffffffffffffffffffffffffffffffffffffffff1673ffffffffffffffffffffffffffffffffffffffff166323b872dd3033856040518463ffffffff1660e01b81526004016101cf939291906106fd565b600060405180830381600087803b1580156101e957600080fd5b505af11580156101fd573d6000803e3d6000fd5b5050505060006002600084815260200190815260200160002060000160009054906101000a900473ffffffffffffffffffffffffffffffffffffffff16905060008173ffffffffffffffffffffffffffffffffffffffff166108fc60026000878152602001908152602001600020600101549081150290604051600060405180830381858888f193505050509050336002600086815260200190815260200160002060000160006101000a81548173ffffffffffffffffffffffffffffffffffffffff021916908373ffffffffffffffffffffffffffffffffffffffff1602179055508092505050919050565b60008054906101000a900473ffffffffffffffffffffffffffffffffffffffff1673ffffffffffffffffffffffffffffffffffffffff166323b872dd3330856040518463ffffffff1660e01b8152600401610347939291906106fd565b600060405180830381600087803b15801561036157600080fd5b505af1158015610375573d6000803e3d6000fd5b505050506001829080600181540180825580915050600190039060005260206000200160009091909190915055806002600084815260200190815260200160002060010181905550336002600084815260200190815260200160002060000160006101000a81548173ffffffffffffffffffffffffffffffffffffffff021916908373ffffffffffffffffffffffffffffffffffffffff1602179055505050565b60008060009054906101000a900473ffffffffffffffffffffffffffffffffffffffff1673ffffffffffffffffffffffffffffffffffffffff166370a08231836040518263ffffffff1660e01b81526004016104729190610734565b602060405180830381865afa15801561048f573d6000803e3d6000fd5b505050506040513d601f19601f820116820180604052508101906104b39190610764565b9050919050565b600181815481106104ca57600080fd5b906000526020600020016000915090505481565b600080fd5b6000819050919050565b6104f6816104e3565b811461050157600080fd5b50565b600081359050610513816104ed565b92915050565b60006020828403121561052f5761052e6104de565b5b600061053d84828501610504565b91505092915050565b60008115159050919050565b61055b81610546565b82525050565b60006020820190506105766000830184610552565b92915050565b60008060408385031215610593576105926104de565b5b60006105a185828601610504565b92505060206105b285828601610504565b9150509250929050565b600073ffffffffffffffffffffffffffffffffffffffff82169050919050565b60006105e7826105bc565b9050919050565b6105f7816105dc565b811461060257600080fd5b50565b600081359050610614816105ee565b92915050565b6000602082840312156106305761062f6104de565b5b600061063e84828501610605565b91505092915050565b610650816104e3565b82525050565b600060208201905061066b6000830184610647565b92915050565b600082825260208201905092915050565b7f796f7520646f6e74206861766520656e6f756768206574686572730000000000600082015250565b60006106b8601b83610671565b91506106c382610682565b602082019050919050565b600060208201905081810360008301526106e7816106ab565b9050919050565b6106f7816105dc565b82525050565b600060608201905061071260008301866106ee565b61071f60208301856106ee565b61072c6040830184610647565b949350505050565b600060208201905061074960008301846106ee565b92915050565b60008151905061075e816104ed565b92915050565b60006020828403121561077a576107796104de565b5b60006107888482850161074f565b9150509291505056fea264697066735822122065c7a8b347a962f433f034aa3e3b4ab04348ec1afd6e6b2ef60f452cb613aa5e64736f6c63430008130033",
  "linkReferences": {},
  "deployedLinkReferences": {}
}